{"abi":[{"type":"function","name":"padLeft","inputs":[{"name":"_string","type":"string","internalType":"string"},{"name":"_pad","type":"string","internalType":"string"},{"name":"_length","type":"uint256","internalType":"uint256"}],"outputs":[{"name":"","type":"string","internalType":"string"}],"stateMutability":"pure"},{"type":"function","name":"padRight","inputs":[{"name":"_string","type":"string","internalType":"string"},{"name":"_pad","type":"string","internalType":"string"},{"name":"_length","type":"uint256","internalType":"uint256"}],"outputs":[{"name":"","type":"string","internalType":"string"}],"stateMutability":"pure"},{"type":"function","name":"slice","inputs":[{"name":"_string","type":"string","internalType":"string"},{"name":"_start","type":"uint256","internalType":"uint256"},{"name":"_end","type":"uint256","internalType":"uint256"}],"outputs":[{"name":"","type":"string","internalType":"string"}],"stateMutability":"pure"},{"type":"function","name":"trim","inputs":[{"name":"_string","type":"string","internalType":"string"}],"outputs":[{"name":"","type":"string","internalType":"string"}],"stateMutability":"pure"}],"bytecode":{"object":"0x6108b2610053600b82828239805160001a607314610046577f4e487b7100000000000000000000000000000000000000000000000000000000600052600060045260246000fd5b30600052607381538281f3fe73000000000000000000000000000000000000000030146080604052600436106100565760003560e01c80631b3ce7ab1461005b57806365d4a0a31461008b57806366f26fce146100bb578063b2dad155146100eb575b600080fd5b6100756004803603810190610070919061057f565b61011b565b6040516100829190610689565b60405180910390f35b6100a560048036038101906100a091906106ab565b61015a565b6040516100b29190610689565b60405180910390f35b6100d560048036038101906100d0919061057f565b610250565b6040516100e29190610689565b60405180910390f35b6101056004803603810190610100919061071a565b61028f565b6040516101129190610689565b60405180910390f35b60605b818451101561015057828460405160200161013a92919061079f565b604051602081830303815290604052935061011e565b8390509392505050565b606060008490506000848461016f91906107f2565b67ffffffffffffffff8111156101885761018761041e565b5b6040519080825280601f01601f1916602001820160405280156101ba5781602001600182028036833780820191505090505b50905060008590505b84811015610243578281815181106101de576101dd610826565b5b602001015160f81c60f81b8287836101f691906107f2565b8151811061020757610206610826565b5b60200101907effffffffffffffffffffffffffffffffffffffffffffffffffffffffffffff1916908160001a90535080806001019150506101c3565b5080925050509392505050565b60605b818451101561028557838360405160200161026f92919061079f565b6040516020818303038152906040529350610253565b8390509392505050565b60606000829050600080600183516102a791906107f2565b905060005b8351811015610330577f20000000000000000000000000000000000000000000000000000000000000008482815181106102e9576102e8610826565b5b602001015160f81c60f81b7effffffffffffffffffffffffffffffffffffffffffffffffffffffffffffff19161461032357809250610330565b80806001019150506102ac565b5060006001845161034191906107f2565b90505b600081106103cd577f20000000000000000000000000000000000000000000000000000000000000008482815181106103805761037f610826565b5b602001015160f81c60f81b7effffffffffffffffffffffffffffffffffffffffffffffffffffffffffffff1916146103ba578091506103cd565b80806103c590610855565b915050610344565b506103e585836001846103e0919061087e565b61015a565b9350505050919050565b6000604051905090565b600080fd5b600080fd5b600080fd5b600080fd5b6000601f19601f8301169050919050565b7f4e487b7100000000000000000000000000000000000000000000000000000000600052604160045260246000fd5b6104568261040d565b810181811067ffffffffffffffff821117156104755761047461041e565b5b80604052505050565b60006104886103ef565b9050610494828261044d565b919050565b600067ffffffffffffffff8211156104b4576104b361041e565b5b6104bd8261040d565b9050602081019050919050565b82818337600083830152505050565b60006104ec6104e784610499565b61047e565b90508281526020810184848401111561050857610507610408565b5b6105138482856104ca565b509392505050565b600082601f8301126105305761052f610403565b5b81356105408482602086016104d9565b91505092915050565b6000819050919050565b61055c81610549565b811461056757600080fd5b50565b60008135905061057981610553565b92915050565b600080600060608486031215610598576105976103f9565b5b600084013567ffffffffffffffff8111156105b6576105b56103fe565b5b6105c28682870161051b565b935050602084013567ffffffffffffffff8111156105e3576105e26103fe565b5b6105ef8682870161051b565b92505060406106008682870161056a565b9150509250925092565b600081519050919050565b600082825260208201905092915050565b60005b83811015610644578082015181840152602081019050610629565b60008484015250505050565b600061065b8261060a565b6106658185610615565b9350610675818560208601610626565b61067e8161040d565b840191505092915050565b600060208201905081810360008301526106a38184610650565b905092915050565b6000806000606084860312156106c4576106c36103f9565b5b600084013567ffffffffffffffff8111156106e2576106e16103fe565b5b6106ee8682870161051b565b93505060206106ff8682870161056a565b92505060406107108682870161056a565b9150509250925092565b6000602082840312156107305761072f6103f9565b5b600082013567ffffffffffffffff81111561074e5761074d6103fe565b5b61075a8482850161051b565b91505092915050565b600081905092915050565b60006107798261060a565b6107838185610763565b9350610793818560208601610626565b80840191505092915050565b60006107ab828561076e565b91506107b7828461076e565b91508190509392505050565b7f4e487b7100000000000000000000000000000000000000000000000000000000600052601160045260246000fd5b60006107fd82610549565b915061080883610549565b92508282039050818111156108205761081f6107c3565b5b92915050565b7f4e487b7100000000000000000000000000000000000000000000000000000000600052603260045260246000fd5b600061086082610549565b915060008203610873576108726107c3565b5b600182039050919050565b600061088982610549565b915061089483610549565b92508282019050808211156108ac576108ab6107c3565b5b9291505056","linkReferences":{}},"methodIdentifiers":{"padLeft(string,string,uint256)":"1b3ce7ab","padRight(string,string,uint256)":"66f26fce","slice(string,uint256,uint256)":"65d4a0a3","trim(string)":"b2dad155"},"id":28}