{"abi":[{"type":"function","name":"addressWithEtherscanLink","inputs":[{"name":"_string","type":"string","internalType":"string"},{"name":"_address","type":"address","internalType":"address"}],"outputs":[],"stateMutability":"pure"},{"type":"function","name":"decimal","inputs":[{"name":"_string","type":"string","internalType":"string"},{"name":"_value","type":"uint256","internalType":"uint256"}],"outputs":[],"stateMutability":"pure"},{"type":"function","name":"decimal","inputs":[{"name":"_string","type":"string","internalType":"string"},{"name":"_value","type":"uint256","internalType":"uint256"},{"name":"_precision","type":"uint256","internalType":"uint256"}],"outputs":[],"stateMutability":"pure"},{"type":"function","name":"logDecimal","inputs":[{"name":"_string","type":"string","internalType":"string"},{"name":"_value","type":"uint256","internalType":"uint256"},{"name":"_precision","type":"uint256","internalType":"uint256"}],"outputs":[],"stateMutability":"pure"},{"type":"function","name":"logPercent","inputs":[{"name":"_string","type":"string","internalType":"string"},{"name":"_percent","type":"uint256","internalType":"uint256"},{"name":"_precision","type":"uint256","internalType":"uint256"}],"outputs":[],"stateMutability":"pure"},{"type":"function","name":"logRate","inputs":[{"name":"_string","type":"string","internalType":"string"},{"name":"_rate","type":"uint256","internalType":"uint256"}],"outputs":[],"stateMutability":"pure"},{"type":"function","name":"logScientific","inputs":[{"name":"_string","type":"string","internalType":"string"},{"name":"_value","type":"uint256","internalType":"uint256"}],"outputs":[],"stateMutability":"pure"},{"type":"function","name":"percent","inputs":[{"name":"_string","type":"string","internalType":"string"},{"name":"_percent","type":"uint256","internalType":"uint256"},{"name":"_precision","type":"uint256","internalType":"uint256"}],"outputs":[],"stateMutability":"pure"},{"type":"function","name":"percent","inputs":[{"name":"_string","type":"string","internalType":"string"},{"name":"_percent","type":"uint256","internalType":"uint256"}],"outputs":[],"stateMutability":"pure"},{"type":"function","name":"rate","inputs":[{"name":"_string","type":"string","internalType":"string"},{"name":"_rate","type":"uint256","internalType":"uint256"}],"outputs":[],"stateMutability":"pure"},{"type":"function","name":"scientific","inputs":[{"name":"_string","type":"string","internalType":"string"},{"name":"_value","type":"uint256","internalType":"uint256"}],"outputs":[],"stateMutability":"pure"},{"type":"error","name":"StringsInsufficientHexLength","inputs":[{"name":"value","type":"uint256","internalType":"uint256"},{"name":"length","type":"uint256","internalType":"uint256"}]}],"bytecode":{"object":"0x6115b4610053600b82828239805160001a607314610046577f4e487b7100000000000000000000000000000000000000000000000000000000600052600060045260246000fd5b30600052607381538281f3fe73000000000000000000000000000000000000000030146080604052600436106100b35760003560e01c80637bf359e51161007b5780637bf359e51461014457806397bbe34014610160578063bc5af06f1461017c578063be1a435614610198578063c5e4edc9146101b4578063d6d3d1d2146101d0576100b3565b806309cfccd4146100b85780631f22e296146100d45780631fb9c9b1146100f05780633df012fb1461010c578063578a632f14610128575b600080fd5b6100d260048036038101906100cd9190610cf8565b6101ec565b005b6100ee60048036038101906100e99190610cf8565b6102ab565b005b61010a60048036038101906101059190610d67565b610376565b005b61012660048036038101906101219190610d67565b6103db565b005b610142600480360381019061013d9190610d67565b6103f2565b005b61015e60048036038101906101599190610d67565b610400565b005b61017a60048036038101906101759190610e21565b61040e565b005b61019660048036038101906101919190610cf8565b6104f0565b005b6101b260048036038101906101ad9190610cf8565b610500565b005b6101ce60048036038101906101c99190610d67565b610510565b005b6101ea60048036038101906101e59190610d67565b6105cc565b005b60008273__$3f859695c9c8e9196dd81957a1acedae29$__63d1c5254e9091846040518363ffffffff1660e01b8152600401610229929190610e8c565b600060405180830381865af4158015610246573d6000803e3d6000fd5b505050506040513d6000823e3d601f19601f8201168201806040525081019061026f9190610f4f565b90506102a5848261027f866105e3565b604051602001610291939291906110c3565b6040516020818303038152906040526106b1565b50505050565b60006064836102ba9190611144565b73__$3f859695c9c8e9196dd81957a1acedae29$__63d1c5254e9091846040518363ffffffff1660e01b81526004016102f4929190610e8c565b600060405180830381865af4158015610311573d6000803e3d6000fd5b505050506040513d6000823e3d601f19601f8201168201806040525081019061033a9190610f4f565b9050610370848261034a866105e3565b60405160200161035c939291906111d2565b6040516020818303038152906040526106b1565b50505050565b6103d7826103a8603263096ea88661038e9190611272565b67ffffffffffffffff16846103a391906112a3565b6105e3565b6103b1846105e3565b6040516020016103c393929190611320565b6040516020818303038152906040526106b1565b5050565b6103ee8282670de0b6b3a76400006101ec565b5050565b6103fc8282610510565b5050565b61040a8282610376565b5050565b6104ec826104318373ffffffffffffffffffffffffffffffffffffffff1661074a565b8373ffffffffffffffffffffffffffffffffffffffff1673__$6b16e4d68cd889fc3b7aa3a9e1c110cc42$__632ec7c75690916040518263ffffffff1660e01b81526004016104809190611381565b600060405180830381865af415801561049d573d6000803e3d6000fd5b505050506040513d6000823e3d601f19601f820116820180604052508101906104c69190610f4f565b6040516020016104d8939291906113e8565b6040516020818303038152906040526106b1565b5050565b6104fb8383836102ab565b505050565b61050b8383836101ec565b505050565b60008173__$3f859695c9c8e9196dd81957a1acedae29$__634f6a534390916040518263ffffffff1660e01b815260040161054b919061143a565b600060405180830381865af4158015610568573d6000803e3d6000fd5b505050506040513d6000823e3d601f19601f820116820180604052508101906105919190610f4f565b90506105c783826105a1856105e3565b6040516020016105b3939291906110c3565b6040516020818303038152906040526106b1565b505050565b6105df8282670de0b6b3a76400006102ab565b5050565b6060600060016105f284610777565b01905060008167ffffffffffffffff81111561061157610610610b97565b5b6040519080825280601f01601f1916602001820160405280156106435781602001600182028036833780820191505090505b509050600082602001820190505b6001156106a6578080600190039150507f3031323334353637383961626364656600000000000000000000000000000000600a86061a8153600a858161069a57610699611243565b5b04945060008503610651575b819350505050919050565b610747816040516024016106c5919061149f565b6040516020818303038152906040527f41304fac000000000000000000000000000000000000000000000000000000007bffffffffffffffffffffffffffffffffffffffffffffffffffffffff19166020820180517bffffffffffffffffffffffffffffffffffffffffffffffffffffffff83818316178352505050506108ca565b50565b60606107708273ffffffffffffffffffffffffffffffffffffffff16601460ff166108e4565b9050919050565b600080600090507a184f03e93ff9f4daa797ed6e38ed64bf6a1f01000000000000000083106107d5577a184f03e93ff9f4daa797ed6e38ed64bf6a1f01000000000000000083816107cb576107ca611243565b5b0492506040810190505b6d04ee2d6d415b85acef81000000008310610812576d04ee2d6d415b85acef8100000000838161080857610807611243565b5b0492506020810190505b662386f26fc10000831061084157662386f26fc10000838161083757610836611243565b5b0492506010810190505b6305f5e100831061086a576305f5e10083816108605761085f611243565b5b0492506008810190505b612710831061088f57612710838161088557610884611243565b5b0492506004810190505b606483106108b257606483816108a8576108a7611243565b5b0492506002810190505b600a83106108c1576001810190505b80915050919050565b6108e1816108d9610b2a610b53565b63ffffffff16565b50565b60606000839050600060028460026108fc9190611144565b61090691906114c1565b67ffffffffffffffff81111561091f5761091e610b97565b5b6040519080825280601f01601f1916602001820160405280156109515781602001600182028036833780820191505090505b5090507f300000000000000000000000000000000000000000000000000000000000000081600081518110610989576109886114f5565b5b60200101907effffffffffffffffffffffffffffffffffffffffffffffffffffffffffffff1916908160001a9053507f7800000000000000000000000000000000000000000000000000000000000000816001815181106109ed576109ec6114f5565b5b60200101907effffffffffffffffffffffffffffffffffffffffffffffffffffffffffffff1916908160001a90535060006001856002610a2d9190611144565b610a3791906114c1565b90505b6001811115610ad7577f3031323334353637383961626364656600000000000000000000000000000000600f841660108110610a7957610a786114f5565b5b1a60f81b828281518110610a9057610a8f6114f5565b5b60200101907effffffffffffffffffffffffffffffffffffffffffffffffffffffffffffff1916908160001a905350600483901c925080610ad090611524565b9050610a3a565b5060008214610b1f5784846040517fe22e27eb000000000000000000000000000000000000000000000000000000008152600401610b1692919061155c565b60405180910390fd5b809250505092915050565b60008151905060006a636f6e736f6c652e6c6f679050602083016000808483855afa5050505050565b610b5e819050919050565b610b66611585565b565b6000604051905090565b600080fd5b600080fd5b600080fd5b600080fd5b6000601f19601f8301169050919050565b7f4e487b7100000000000000000000000000000000000000000000000000000000600052604160045260246000fd5b610bcf82610b86565b810181811067ffffffffffffffff82111715610bee57610bed610b97565b5b80604052505050565b6000610c01610b68565b9050610c0d8282610bc6565b919050565b600067ffffffffffffffff821115610c2d57610c2c610b97565b5b610c3682610b86565b9050602081019050919050565b82818337600083830152505050565b6000610c65610c6084610c12565b610bf7565b905082815260208101848484011115610c8157610c80610b81565b5b610c8c848285610c43565b509392505050565b600082601f830112610ca957610ca8610b7c565b5b8135610cb9848260208601610c52565b91505092915050565b6000819050919050565b610cd581610cc2565b8114610ce057600080fd5b50565b600081359050610cf281610ccc565b92915050565b600080600060608486031215610d1157610d10610b72565b5b600084013567ffffffffffffffff811115610d2f57610d2e610b77565b5b610d3b86828701610c94565b9350506020610d4c86828701610ce3565b9250506040610d5d86828701610ce3565b9150509250925092565b60008060408385031215610d7e57610d7d610b72565b5b600083013567ffffffffffffffff811115610d9c57610d9b610b77565b5b610da885828601610c94565b9250506020610db985828601610ce3565b9150509250929050565b600073ffffffffffffffffffffffffffffffffffffffff82169050919050565b6000610dee82610dc3565b9050919050565b610dfe81610de3565b8114610e0957600080fd5b50565b600081359050610e1b81610df5565b92915050565b60008060408385031215610e3857610e37610b72565b5b600083013567ffffffffffffffff811115610e5657610e55610b77565b5b610e6285828601610c94565b9250506020610e7385828601610e0c565b9150509250929050565b610e8681610cc2565b82525050565b6000604082019050610ea16000830185610e7d565b610eae6020830184610e7d565b9392505050565b60005b83811015610ed3578082015181840152602081019050610eb8565b60008484015250505050565b6000610ef2610eed84610c12565b610bf7565b905082815260208101848484011115610f0e57610f0d610b81565b5b610f19848285610eb5565b509392505050565b600082601f830112610f3657610f35610b7c565b5b8151610f46848260208601610edf565b91505092915050565b600060208284031215610f6557610f64610b72565b5b600082015167ffffffffffffffff811115610f8357610f82610b77565b5b610f8f84828501610f21565b91505092915050565b600081519050919050565b600081905092915050565b6000610fb982610f98565b610fc38185610fa3565b9350610fd3818560208601610eb5565b80840191505092915050565b7f2000000000000000000000000000000000000000000000000000000000000000600082015250565b6000611015600183610fa3565b915061102082610fdf565b600182019050919050565b7f20287261773a2000000000000000000000000000000000000000000000000000600082015250565b6000611061600783610fa3565b915061106c8261102b565b600782019050919050565b7f2900000000000000000000000000000000000000000000000000000000000000600082015250565b60006110ad600183610fa3565b91506110b882611077565b600182019050919050565b60006110cf8286610fae565b91506110da82611008565b91506110e68285610fae565b91506110f182611054565b91506110fd8284610fae565b9150611108826110a0565b9150819050949350505050565b7f4e487b7100000000000000000000000000000000000000000000000000000000600052601160045260246000fd5b600061114f82610cc2565b915061115a83610cc2565b925082820261116881610cc2565b9150828204841483151761117f5761117e611115565b5b5092915050565b7f2500000000000000000000000000000000000000000000000000000000000000600082015250565b60006111bc600183610fa3565b91506111c782611186565b600182019050919050565b60006111de8286610fae565b91506111e982611008565b91506111f58285610fae565b9150611200826111af565b915061120b82611054565b91506112178284610fae565b9150611222826110a0565b9150819050949350505050565b600067ffffffffffffffff82169050919050565b7f4e487b7100000000000000000000000000000000000000000000000000000000600052601260045260246000fd5b600061127d8261122f565b91506112888361122f565b92508261129857611297611243565b5b828204905092915050565b60006112ae82610cc2565b91506112b983610cc2565b9250826112c9576112c8611243565b5b828204905092915050565b7f204250533a200000000000000000000000000000000000000000000000000000600082015250565b600061130a600683610fa3565b9150611315826112d4565b600682019050919050565b600061132c8286610fae565b9150611337826112fd565b91506113438285610fae565b915061134e82611054565b915061135a8284610fae565b9150611365826110a0565b9150819050949350505050565b61137b81610de3565b82525050565b60006020820190506113966000830184611372565b92915050565b7f2028000000000000000000000000000000000000000000000000000000000000600082015250565b60006113d2600283610fa3565b91506113dd8261139c565b600282019050919050565b60006113f48286610fae565b91506113ff82611008565b915061140b8285610fae565b9150611416826113c5565b91506114228284610fae565b915061142d826110a0565b9150819050949350505050565b600060208201905061144f6000830184610e7d565b92915050565b600082825260208201905092915050565b600061147182610f98565b61147b8185611455565b935061148b818560208601610eb5565b61149481610b86565b840191505092915050565b600060208201905081810360008301526114b98184611466565b905092915050565b60006114cc82610cc2565b91506114d783610cc2565b92508282019050808211156114ef576114ee611115565b5b92915050565b7f4e487b7100000000000000000000000000000000000000000000000000000000600052603260045260246000fd5b600061152f82610cc2565b91506000820361154257611541611115565b5b600182039050919050565b61155681610cc2565b82525050565b6000604082019050611571600083018561154d565b61157e602083018461154d565b9392505050565b7f4e487b7100000000000000000000000000000000000000000000000000000000600052605160045260246000fd","linkReferences":{"node_modules/frax-standard-solidity/src/AddressHelper.sol":{"AddressHelper":[{"start":1181,"length":20}]},"node_modules/frax-standard-solidity/src/NumberFormat.sol":{"NumberFormat":[{"start":580,"length":20},{"start":783,"length":20},{"start":1384,"length":20}]}}},"methodIdentifiers":{"addressWithEtherscanLink(string,address)":"97bbe340","decimal(string,uint256)":"3df012fb","decimal(string,uint256,uint256)":"be1a4356","logDecimal(string,uint256,uint256)":"09cfccd4","logPercent(string,uint256,uint256)":"1f22e296","logRate(string,uint256)":"1fb9c9b1","logScientific(string,uint256)":"c5e4edc9","percent(string,uint256)":"d6d3d1d2","percent(string,uint256,uint256)":"bc5af06f","rate(string,uint256)":"7bf359e5","scientific(string,uint256)":"578a632f"},"id":26}