{"abi":[{"type":"function","name":"labelAndDeal","inputs":[{"name":"_address","type":"address","internalType":"address"},{"name":"_label","type":"string","internalType":"string"}],"outputs":[{"name":"","type":"address","internalType":"address payable"}],"stateMutability":"nonpayable"},{"type":"function","name":"mineBlocks","inputs":[{"name":"_blocks","type":"uint256","internalType":"uint256"}],"outputs":[{"name":"result","type":"tuple","internalType":"struct VmHelper.MineBlocksResult","components":[{"name":"timeElapsed","type":"uint256","internalType":"uint256"},{"name":"blocksElapsed","type":"uint256","internalType":"uint256"},{"name":"currentTimestamp","type":"uint256","internalType":"uint256"},{"name":"currentBlockNumber","type":"uint256","internalType":"uint256"}]}],"stateMutability":"nonpayable"},{"type":"function","name":"mineBlocksBySecond","inputs":[{"name":"secondsElapsed","type":"uint256","internalType":"uint256"}],"outputs":[{"name":"result","type":"tuple","internalType":"struct VmHelper.MineBlocksResult","components":[{"name":"timeElapsed","type":"uint256","internalType":"uint256"},{"name":"blocksElapsed","type":"uint256","internalType":"uint256"},{"name":"currentTimestamp","type":"uint256","internalType":"uint256"},{"name":"currentBlockNumber","type":"uint256","internalType":"uint256"}]}],"stateMutability":"nonpayable"},{"type":"function","name":"mineBlocksToTimestamp","inputs":[{"name":"_timestamp","type":"uint256","internalType":"uint256"}],"outputs":[{"name":"result","type":"tuple","internalType":"struct VmHelper.MineBlocksResult","components":[{"name":"timeElapsed","type":"uint256","internalType":"uint256"},{"name":"blocksElapsed","type":"uint256","internalType":"uint256"},{"name":"currentTimestamp","type":"uint256","internalType":"uint256"},{"name":"currentBlockNumber","type":"uint256","internalType":"uint256"}]}],"stateMutability":"nonpayable"},{"type":"function","name":"mineOneBlock","inputs":[],"outputs":[{"name":"result","type":"tuple","internalType":"struct VmHelper.MineBlocksResult","components":[{"name":"timeElapsed","type":"uint256","internalType":"uint256"},{"name":"blocksElapsed","type":"uint256","internalType":"uint256"},{"name":"currentTimestamp","type":"uint256","internalType":"uint256"},{"name":"currentBlockNumber","type":"uint256","internalType":"uint256"}]}],"stateMutability":"nonpayable"}],"bytecode":{"object":"0x608060405234801561001057600080fd5b50610e42806100206000396000f3fe608060405234801561001057600080fd5b50600436106100575760003560e01c806309c057fb1461005c5780630d453eac1461008c5780638dda7019146100bc578063aca7eebd146100da578063f82de7b01461010a575b600080fd5b61007660048036038101906100719190610a39565b61013a565b6040516100839190610ab6565b60405180910390f35b6100a660048036038101906100a19190610b07565b610269565b6040516100b39190610b98565b60405180910390f35b6100c46103e8565b6040516100d19190610b98565b60405180910390f35b6100f460048036038101906100ef9190610b07565b61055b565b6040516101019190610b98565b60405180910390f35b610124600480360381019061011f9190610b07565b6106da565b6040516101319190610b98565b60405180910390f35b60007f885cb69240a935d632d79c317109709ecfa91a80626ff3989d68f67f5b1dd12d60001c73ffffffffffffffffffffffffffffffffffffffff1663c657c71884846040518363ffffffff1660e01b815260040161019a929190610c41565b600060405180830381600087803b1580156101b457600080fd5b505af11580156101c8573d6000803e3d6000fd5b505050507f885cb69240a935d632d79c317109709ecfa91a80626ff3989d68f67f5b1dd12d60001c73ffffffffffffffffffffffffffffffffffffffff1663c88a5e6d84633b9aca006040518363ffffffff1660e01b815260040161022e929190610cb6565b600060405180830381600087803b15801561024857600080fd5b505af115801561025c573d6000803e3d6000fd5b5050505082905092915050565b610271610859565b60008290506000600c846102859190610d3d565b90507f885cb69240a935d632d79c317109709ecfa91a80626ff3989d68f67f5b1dd12d60001c73ffffffffffffffffffffffffffffffffffffffff1663e5d6bf0283426102d29190610d6e565b6040518263ffffffff1660e01b81526004016102ee9190610db1565b600060405180830381600087803b15801561030857600080fd5b505af115801561031c573d6000803e3d6000fd5b505050507f885cb69240a935d632d79c317109709ecfa91a80626ff3989d68f67f5b1dd12d60001c73ffffffffffffffffffffffffffffffffffffffff16631f7b4f30824361036b9190610d6e565b6040518263ffffffff1660e01b81526004016103879190610db1565b600060405180830381600087803b1580156103a157600080fd5b505af11580156103b5573d6000803e3d6000fd5b50505050818360000181815250508083602001818152505042836040018181525050438360600181815250505050919050565b6103f0610859565b6000600c90506000600190507f885cb69240a935d632d79c317109709ecfa91a80626ff3989d68f67f5b1dd12d60001c73ffffffffffffffffffffffffffffffffffffffff1663e5d6bf0283426104479190610d6e565b6040518263ffffffff1660e01b81526004016104639190610db1565b600060405180830381600087803b15801561047d57600080fd5b505af1158015610491573d6000803e3d6000fd5b505050507f885cb69240a935d632d79c317109709ecfa91a80626ff3989d68f67f5b1dd12d60001c73ffffffffffffffffffffffffffffffffffffffff16631f7b4f3082436104e09190610d6e565b6040518263ffffffff1660e01b81526004016104fc9190610db1565b600060405180830381600087803b15801561051657600080fd5b505af115801561052a573d6000803e3d6000fd5b5050505081836000018181525050808360200181815250504283604001818152505043836060018181525050505090565b610563610859565b600042836105719190610dcc565b90506000600c826105829190610d3d565b90507f885cb69240a935d632d79c317109709ecfa91a80626ff3989d68f67f5b1dd12d60001c73ffffffffffffffffffffffffffffffffffffffff1663e5d6bf02856040518263ffffffff1660e01b81526004016105e09190610db1565b600060405180830381600087803b1580156105fa57600080fd5b505af115801561060e573d6000803e3d6000fd5b505050507f885cb69240a935d632d79c317109709ecfa91a80626ff3989d68f67f5b1dd12d60001c73ffffffffffffffffffffffffffffffffffffffff16631f7b4f30824361065d9190610d6e565b6040518263ffffffff1660e01b81526004016106799190610db1565b600060405180830381600087803b15801561069357600080fd5b505af11580156106a7573d6000803e3d6000fd5b50505050818360000181815250508083602001818152505042836040018181525050438360600181815250505050919050565b6106e2610859565b600082600c6106f19190610e00565b905060008390507f885cb69240a935d632d79c317109709ecfa91a80626ff3989d68f67f5b1dd12d60001c73ffffffffffffffffffffffffffffffffffffffff1663e5d6bf0283426107439190610d6e565b6040518263ffffffff1660e01b815260040161075f9190610db1565b600060405180830381600087803b15801561077957600080fd5b505af115801561078d573d6000803e3d6000fd5b505050507f885cb69240a935d632d79c317109709ecfa91a80626ff3989d68f67f5b1dd12d60001c73ffffffffffffffffffffffffffffffffffffffff16631f7b4f3082436107dc9190610d6e565b6040518263ffffffff1660e01b81526004016107f89190610db1565b600060405180830381600087803b15801561081257600080fd5b505af1158015610826573d6000803e3d6000fd5b50505050818360000181815250508083602001818152505042836040018181525050438360600181815250505050919050565b6040518060800160405280600081526020016000815260200160008152602001600081525090565b6000604051905090565b600080fd5b600080fd5b600073ffffffffffffffffffffffffffffffffffffffff82169050919050565b60006108c082610895565b9050919050565b6108d0816108b5565b81146108db57600080fd5b50565b6000813590506108ed816108c7565b92915050565b600080fd5b600080fd5b6000601f19601f8301169050919050565b7f4e487b7100000000000000000000000000000000000000000000000000000000600052604160045260246000fd5b610946826108fd565b810181811067ffffffffffffffff821117156109655761096461090e565b5b80604052505050565b6000610978610881565b9050610984828261093d565b919050565b600067ffffffffffffffff8211156109a4576109a361090e565b5b6109ad826108fd565b9050602081019050919050565b82818337600083830152505050565b60006109dc6109d784610989565b61096e565b9050828152602081018484840111156109f8576109f76108f8565b5b610a038482856109ba565b509392505050565b600082601f830112610a2057610a1f6108f3565b5b8135610a308482602086016109c9565b91505092915050565b60008060408385031215610a5057610a4f61088b565b5b6000610a5e858286016108de565b925050602083013567ffffffffffffffff811115610a7f57610a7e610890565b5b610a8b85828601610a0b565b9150509250929050565b6000610aa082610895565b9050919050565b610ab081610a95565b82525050565b6000602082019050610acb6000830184610aa7565b92915050565b6000819050919050565b610ae481610ad1565b8114610aef57600080fd5b50565b600081359050610b0181610adb565b92915050565b600060208284031215610b1d57610b1c61088b565b5b6000610b2b84828501610af2565b91505092915050565b610b3d81610ad1565b82525050565b608082016000820151610b596000850182610b34565b506020820151610b6c6020850182610b34565b506040820151610b7f6040850182610b34565b506060820151610b926060850182610b34565b50505050565b6000608082019050610bad6000830184610b43565b92915050565b610bbc816108b5565b82525050565b600081519050919050565b600082825260208201905092915050565b60005b83811015610bfc578082015181840152602081019050610be1565b60008484015250505050565b6000610c1382610bc2565b610c1d8185610bcd565b9350610c2d818560208601610bde565b610c36816108fd565b840191505092915050565b6000604082019050610c566000830185610bb3565b8181036020830152610c688184610c08565b90509392505050565b6000819050919050565b6000819050919050565b6000610ca0610c9b610c9684610c71565b610c7b565b610ad1565b9050919050565b610cb081610c85565b82525050565b6000604082019050610ccb6000830185610bb3565b610cd86020830184610ca7565b9392505050565b7f4e487b7100000000000000000000000000000000000000000000000000000000600052601260045260246000fd5b7f4e487b7100000000000000000000000000000000000000000000000000000000600052601160045260246000fd5b6000610d4882610ad1565b9150610d5383610ad1565b925082610d6357610d62610cdf565b5b828204905092915050565b6000610d7982610ad1565b9150610d8483610ad1565b9250828201905080821115610d9c57610d9b610d0e565b5b92915050565b610dab81610ad1565b82525050565b6000602082019050610dc66000830184610da2565b92915050565b6000610dd782610ad1565b9150610de283610ad1565b9250828203905081811115610dfa57610df9610d0e565b5b92915050565b6000610e0b82610ad1565b9150610e1683610ad1565b9250828202610e2481610ad1565b91508282048414831517610e3b57610e3a610d0e565b5b509291505056","linkReferences":{}},"methodIdentifiers":{"labelAndDeal(address,string)":"09c057fb","mineBlocks(uint256)":"f82de7b0","mineBlocksBySecond(uint256)":"0d453eac","mineBlocksToTimestamp(uint256)":"aca7eebd","mineOneBlock()":"8dda7019"},"id":30}