{"abi":[{"type":"function","name":"toDecimal","inputs":[{"name":"_value","type":"uint256","internalType":"uint256"},{"name":"_precision","type":"uint256","internalType":"uint256"}],"outputs":[{"name":"","type":"string","internalType":"string"}],"stateMutability":"pure"},{"type":"function","name":"toScientific","inputs":[{"name":"_value","type":"uint256","internalType":"uint256"}],"outputs":[{"name":"","type":"string","internalType":"string"}],"stateMutability":"pure"}],"bytecode":{"object":"0x610f0a610053600b82828239805160001a607314610046577f4e487b7100000000000000000000000000000000000000000000000000000000600052600060045260246000fd5b30600052607381538281f3fe73000000000000000000000000000000000000000030146080604052600436106100405760003560e01c80634f6a534314610045578063d1c5254e14610075575b600080fd5b61005f600480360381019061005a91906106d3565b6100a5565b60405161006c9190610790565b60405180910390f35b61008f600480360381019061008a91906107b2565b610354565b60405161009c9190610790565b60405180910390f35b6060600060016100b484610468565b516100bf9190610821565b9050600081600a6100d09190610988565b90506000818510156100e35760006100f0565b81856100ef9190610a02565b5b9050600061011383836101039190610a33565b8761010e9190610821565b610468565b73__$694583bbe5eea5c14f51a591914c2c1251$__631b3ce7ab9091866040518363ffffffff1660e01b815260040161014d929190610ad0565b600060405180830381865af415801561016a573d6000803e3d6000fd5b505050506040513d6000823e3d601f19601f820116820180604052508101906101939190610c39565b90506000819050600080600183516101ab9190610821565b90505b6000811115610238577f30000000000000000000000000000000000000000000000000000000000000008382815181106101eb576101ea610c82565b5b602001015160f81c60f81b7effffffffffffffffffffffffffffffffffffffffffffffffffffffffffffff19161461022557809150610238565b808061023090610cb1565b9150506101ae565b50600081036102805761024a84610468565b61025387610468565b604051602001610264929190610d62565b604051602081830303815290604052965050505050505061034f565b8273__$694583bbe5eea5c14f51a591914c2c1251$__6365d4a0a3909160006001856102ac9190610d91565b6040518463ffffffff1660e01b81526004016102ca93929190610e0a565b600060405180830381865af41580156102e7573d6000803e3d6000fd5b505050506040513d6000823e3d601f19601f820116820180604052508101906103109190610c39565b925061031b84610468565b8361032588610468565b60405160200161033793929190610e94565b60405160208183030381529060405296505050505050505b919050565b60606000600161036384610468565b5161036e9190610821565b905060008385101561038157600061038e565b838561038d9190610a02565b5b905060006103b185836103a19190610a33565b876103ac9190610821565b610468565b73__$694583bbe5eea5c14f51a591914c2c1251$__631b3ce7ab9091856040518363ffffffff1660e01b81526004016103eb929190610ad0565b600060405180830381865af4158015610408573d6000803e3d6000fd5b505050506040513d6000823e3d601f19601f820116820180604052508101906104319190610c39565b905061043c82610468565b8160405160200161044e929190610edb565b604051602081830303815290604052935050505092915050565b60606000600161047784610536565b01905060008167ffffffffffffffff81111561049657610495610b1d565b5b6040519080825280601f01601f1916602001820160405280156104c85781602001600182028036833780820191505090505b509050600082602001820190505b60011561052b578080600190039150507f3031323334353637383961626364656600000000000000000000000000000000600a86061a8153600a858161051f5761051e6109d3565b5b049450600085036104d6575b819350505050919050565b600080600090507a184f03e93ff9f4daa797ed6e38ed64bf6a1f0100000000000000008310610594577a184f03e93ff9f4daa797ed6e38ed64bf6a1f010000000000000000838161058a576105896109d3565b5b0492506040810190505b6d04ee2d6d415b85acef810000000083106105d1576d04ee2d6d415b85acef810000000083816105c7576105c66109d3565b5b0492506020810190505b662386f26fc10000831061060057662386f26fc1000083816105f6576105f56109d3565b5b0492506010810190505b6305f5e1008310610629576305f5e100838161061f5761061e6109d3565b5b0492506008810190505b612710831061064e576127108381610644576106436109d3565b5b0492506004810190505b606483106106715760648381610667576106666109d3565b5b0492506002810190505b600a8310610680576001810190505b80915050919050565b6000604051905090565b600080fd5b600080fd5b6000819050919050565b6106b08161069d565b81146106bb57600080fd5b50565b6000813590506106cd816106a7565b92915050565b6000602082840312156106e9576106e8610693565b5b60006106f7848285016106be565b91505092915050565b600081519050919050565b600082825260208201905092915050565b60005b8381101561073a57808201518184015260208101905061071f565b60008484015250505050565b6000601f19601f8301169050919050565b600061076282610700565b61076c818561070b565b935061077c81856020860161071c565b61078581610746565b840191505092915050565b600060208201905081810360008301526107aa8184610757565b905092915050565b600080604083850312156107c9576107c8610693565b5b60006107d7858286016106be565b92505060206107e8858286016106be565b9150509250929050565b7f4e487b7100000000000000000000000000000000000000000000000000000000600052601160045260246000fd5b600061082c8261069d565b91506108378361069d565b925082820390508181111561084f5761084e6107f2565b5b92915050565b60008160011c9050919050565b6000808291508390505b60018511156108ac57808604811115610888576108876107f2565b5b60018516156108975780820291505b80810290506108a585610855565b945061086c565b94509492505050565b6000826108c55760019050610981565b816108d35760009050610981565b81600181146108e957600281146108f357610922565b6001915050610981565b60ff841115610905576109046107f2565b5b8360020a91508482111561091c5761091b6107f2565b5b50610981565b5060208310610133831016604e8410600b84101617156109575782820a905083811115610952576109516107f2565b5b610981565b6109648484846001610862565b9250905081840481111561097b5761097a6107f2565b5b81810290505b9392505050565b60006109938261069d565b915061099e8361069d565b92506109cb7fffffffffffffffffffffffffffffffffffffffffffffffffffffffffffffffff84846108b5565b905092915050565b7f4e487b7100000000000000000000000000000000000000000000000000000000600052601260045260246000fd5b6000610a0d8261069d565b9150610a188361069d565b925082610a2857610a276109d3565b5b828204905092915050565b6000610a3e8261069d565b9150610a498361069d565b9250828202610a578161069d565b91508282048414831517610a6e57610a6d6107f2565b5b5092915050565b7f3000000000000000000000000000000000000000000000000000000000000000600082015250565b6000610aab60018361070b565b9150610ab682610a75565b602082019050919050565b610aca8161069d565b82525050565b60006060820190508181036000830152610aea8185610757565b90508181036020830152610afd81610a9e565b9050610b0c6040830184610ac1565b9392505050565b600080fd5b600080fd5b7f4e487b7100000000000000000000000000000000000000000000000000000000600052604160045260246000fd5b610b5582610746565b810181811067ffffffffffffffff82111715610b7457610b73610b1d565b5b80604052505050565b6000610b87610689565b9050610b938282610b4c565b919050565b600067ffffffffffffffff821115610bb357610bb2610b1d565b5b610bbc82610746565b9050602081019050919050565b6000610bdc610bd784610b98565b610b7d565b905082815260208101848484011115610bf857610bf7610b18565b5b610c0384828561071c565b509392505050565b600082601f830112610c2057610c1f610b13565b5b8151610c30848260208601610bc9565b91505092915050565b600060208284031215610c4f57610c4e610693565b5b600082015167ffffffffffffffff811115610c6d57610c6c610698565b5b610c7984828501610c0b565b91505092915050565b7f4e487b7100000000000000000000000000000000000000000000000000000000600052603260045260246000fd5b6000610cbc8261069d565b915060008203610ccf57610cce6107f2565b5b600182039050919050565b600081905092915050565b6000610cf082610700565b610cfa8185610cda565b9350610d0a81856020860161071c565b80840191505092915050565b7f6500000000000000000000000000000000000000000000000000000000000000600082015250565b6000610d4c600183610cda565b9150610d5782610d16565b600182019050919050565b6000610d6e8285610ce5565b9150610d7982610d3f565b9150610d858284610ce5565b91508190509392505050565b6000610d9c8261069d565b9150610da78361069d565b9250828201905080821115610dbf57610dbe6107f2565b5b92915050565b6000819050919050565b6000819050919050565b6000610df4610def610dea84610dc5565b610dcf565b61069d565b9050919050565b610e0481610dd9565b82525050565b60006060820190508181036000830152610e248186610757565b9050610e336020830185610dfb565b610e406040830184610ac1565b949350505050565b7f2e00000000000000000000000000000000000000000000000000000000000000600082015250565b6000610e7e600183610cda565b9150610e8982610e48565b600182019050919050565b6000610ea08286610ce5565b9150610eab82610e71565b9150610eb78285610ce5565b9150610ec282610d3f565b9150610ece8284610ce5565b9150819050949350505050565b6000610ee78285610ce5565b9150610ef282610e71565b9150610efe8284610ce5565b9150819050939250505056","linkReferences":{"node_modules/frax-standard-solidity/src/StringsHelper.sol":{"StringsHelper":[{"start":360,"length":20},{"start":726,"length":20},{"start":1030,"length":20}]}}},"methodIdentifiers":{"toDecimal(uint256,uint256)":"d1c5254e","toScientific(uint256)":"4f6a5343"},"id":27}