{"abi":[{"type":"function","name":"etherscanLink","inputs":[{"name":"_address","type":"address","internalType":"address"}],"outputs":[{"name":"","type":"string","internalType":"string"}],"stateMutability":"pure"},{"type":"function","name":"toEtherscanLink","inputs":[{"name":"_address","type":"address","internalType":"address"}],"outputs":[{"name":"","type":"string","internalType":"string"}],"stateMutability":"pure"},{"type":"error","name":"StringsInsufficientHexLength","inputs":[{"name":"value","type":"uint256","internalType":"uint256"},{"name":"length","type":"uint256","internalType":"uint256"}]}],"bytecode":{"object":"0x6106cb610053600b82828239805160001a607314610046577f4e487b7100000000000000000000000000000000000000000000000000000000600052600060045260246000fd5b30600052607381538281f3fe73000000000000000000000000000000000000000030146080604052600436106100405760003560e01c80632ec7c7561461004557806338f9152414610075575b600080fd5b61005f600480360381019061005a91906103d4565b6100a5565b60405161006c9190610491565b60405180910390f35b61008f600480360381019061008a91906103d4565b6100ec565b60405161009c9190610491565b60405180910390f35b60606100c68273ffffffffffffffffffffffffffffffffffffffff166100fe565b6040516020016100d6919061053b565b6040516020818303038152906040529050919050565b60606100f7826100a5565b9050919050565b60606101248273ffffffffffffffffffffffffffffffffffffffff16601460ff1661012b565b9050919050565b60606000839050600060028460026101439190610596565b61014d91906105d8565b67ffffffffffffffff8111156101665761016561060c565b5b6040519080825280601f01601f1916602001820160405280156101985781602001600182028036833780820191505090505b5090507f3000000000000000000000000000000000000000000000000000000000000000816000815181106101d0576101cf61063b565b5b60200101907effffffffffffffffffffffffffffffffffffffffffffffffffffffffffffff1916908160001a9053507f7800000000000000000000000000000000000000000000000000000000000000816001815181106102345761023361063b565b5b60200101907effffffffffffffffffffffffffffffffffffffffffffffffffffffffffffff1916908160001a905350600060018560026102749190610596565b61027e91906105d8565b90505b600181111561031e577f3031323334353637383961626364656600000000000000000000000000000000600f8416601081106102c0576102bf61063b565b5b1a60f81b8282815181106102d7576102d661063b565b5b60200101907effffffffffffffffffffffffffffffffffffffffffffffffffffffffffffff1916908160001a905350600483901c9250806103179061066a565b9050610281565b50600082146103665784846040517fe22e27eb00000000000000000000000000000000000000000000000000000000815260040161035d9291906106a2565b60405180910390fd5b809250505092915050565b600080fd5b600073ffffffffffffffffffffffffffffffffffffffff82169050919050565b60006103a182610376565b9050919050565b6103b181610396565b81146103bc57600080fd5b50565b6000813590506103ce816103a8565b92915050565b6000602082840312156103ea576103e9610371565b5b60006103f8848285016103bf565b91505092915050565b600081519050919050565b600082825260208201905092915050565b60005b8381101561043b578082015181840152602081019050610420565b60008484015250505050565b6000601f19601f8301169050919050565b600061046382610401565b61046d818561040c565b935061047d81856020860161041d565b61048681610447565b840191505092915050565b600060208201905081810360008301526104ab8184610458565b905092915050565b600081905092915050565b7f68747470733a2f2f65746865727363616e2e696f2f616464726573732f000000600082015250565b60006104f4601d836104b3565b91506104ff826104be565b601d82019050919050565b600061051582610401565b61051f81856104b3565b935061052f81856020860161041d565b80840191505092915050565b6000610546826104e7565b9150610552828461050a565b915081905092915050565b6000819050919050565b7f4e487b7100000000000000000000000000000000000000000000000000000000600052601160045260246000fd5b60006105a18261055d565b91506105ac8361055d565b92508282026105ba8161055d565b915082820484148315176105d1576105d0610567565b5b5092915050565b60006105e38261055d565b91506105ee8361055d565b925082820190508082111561060657610605610567565b5b92915050565b7f4e487b7100000000000000000000000000000000000000000000000000000000600052604160045260246000fd5b7f4e487b7100000000000000000000000000000000000000000000000000000000600052603260045260246000fd5b60006106758261055d565b91506000820361068857610687610567565b5b600182039050919050565b61069c8161055d565b82525050565b60006040820190506106b76000830185610693565b6106c46020830184610693565b939250505056","linkReferences":{}},"methodIdentifiers":{"etherscanLink(address)":"38f91524","toEtherscanLink(address)":"2ec7c756"},"id":21}